:400000000010002011000000151400001514000080B500AF01F008FA80B500AF1A4B1A4A12688021C9020A431A60302002F060F9164B174A1A60174B30221A60164B102264
:400040001A60164B20221A60154B11221A60154B11221A60144B822212061A600A4B8022D2021A60114B124A1A60124B124A1A60124B134A1A60134B134A1A60134B0022A7
:400080001A60C046BD4680BD00010B4004010B4006000080080202401C02024020020240240202403002024008010B4000000240020000804000024009000080800002408D
:4000C0002200008004000240EF0000800C020B4080B582B000AF72B65D4B01221A70FB1D00221A7022E0FB1D1A7813005B009B185B00584A9B183B603B681A7859780902D0
:400100000A43997809040A43DB781B06134318003B681A795B791B0213439BB2190001F0F5F8FB1D1A78FB1D01321A70FB1D1B78012BD8D9484A494B1100180001F0F6F82F
:40014000474B802252001A80464B01221A70464B464A1A60464B802292051A60454B464A1A60464B99221A60454B992212041A60444B802212041A60434B444A1A60444B21
:40018000802252011A60434B992212041A60424B992212041A60414BC02212061A60404BC02212021A603F4B992212041A603E4BF02252051A603D4BFF2212021A603C4B25
:4001C0008E221A603B4B05221A603B4B06221A603A4A3A4B1B78DBB23C218B43DBB214210B43DBB21370364A354B1B78DBB216210B43DBB21370334B4F221A60324B334AFA
:400200001A60334B03221A60324B80221A60324BDE221A60314B324A1A60324B42221A60314BF0221A60314B314A1A60314B02221A60314B31221A60304B02221A60FFF7DF
:40024000EBFE01F0B5F8C046BD4602B080BDC0461C700F40F4520000285300000053000000600F4002600F400000014060000002080001400C00014000EE222210000140EE
:4002800000500F4004500F4008500F40000004300C500F4010500F4020500F4028500F402C500F4030500F4038500F403C500F40600105402000004000800F4001700F4060
:4002C00000700F40000004400800044080051800180004401801044000020440080204408024C000180204400003044008030440806DDB00000404400804044018040440AD
:4003000010B5064C2378002B07D1054B002B02D0044800E000BF0123237010BD5001002000000000F0520000084B10B5002B03D00749084800E000BF07480368002B00D18E
:4003400010BD064B002BFBD09847F9E70000000054010020F0520000C800002000000000F0B58BB000AF0F2310229446BC44634400221A70162310229446BC4463440022DD
:400380001A8000F04BFF72B600F074FF62B600F0B5FFC24B00221A70C14B1B79180001F093FA00F0EBFB00F095FABD4B23229B5C012B28D9BA4B1B79002B08D1B84B9869CC
:4003C000D9690022B74B02F013FC031E0CD1B44B1B79012B17D1B24B9869D9690022B24B02F0F2FB031E0ED0AD4B222201219954AA4B00221A70AA4B23229B5C0133D9B2D8
:40040000A74B23229954A64B23229B5C012B03D1A34B232202219954A14B23229B5C052B03D19F4B2322062199549D4B23229B5C022B08D19A4B9869D96900229B4B02F06D
:40044000D7FB031E29D1964B23229B5C032B08D1934B9869D9690022954B02F0C9FB031E1BD18F4B23229B5C062B08D18C4B9869D96900228E4B02F0A7FB031E0DD1884BEA
:4004800023229B5C072B10D1854B9869D9690022864B02F099FB031E07D0814B23229B5C0133D9B27E4B232299547D4B23229B5C092B02D1794B00221A70794B23229B5C2C
:4004C000092B02D97B4B06221A70744B1B78002B42D1734B22229B5C012B3DD1002001F003FA6F4B1B79002B03D16D4B01221A710AE06B4B1B79012B03D1694B00221A715C
:4005000002E06C4B05221A70162310229446BC44634400221A80684B00221A80604B1B79180001F0D1F95E4B222200219954FA23DB00180002F054F800F010FD1623102297
:400540009446BC44634400221A805B4B00221A80524B01221A701BE0504B1B78002B17D1012001F0D1F9002001F0BEF901F0DCF803001B0C180001F0E3F8504BA022D202AE
:400580001A600F2310229446BC44634401221A70484B1B78002B39D0002001F0A5F9454B1B78012B18D101F0D7F90300DB43DBB2180001F0A9F9424B180002F011F801F043
:4005C000CBF90300DB43DBB2180001F09DF93C4B180002F005F819E001F0BEF90300DB43DBB2180001F090F9FA235B00180001F0F7FF01F0B1F90300DB43DBB2180001F0B2
:4006000083F9FA235B00180001F0EAFF234B1B78012B00D04BE1274B1B78002B00D046E1002001F071F900F0EBFA032001F05CF9162310229446BC4463441F4A12881A8042
:40064000162310229446BC4463441B88FF221340FF2B00D015E1162310229446BC4463441A88162310218C46BC44634401321A8000233B620A4B9869D9690022002302F0BA
:4006800099FA031E1ED0064B9A69DB6911000C008021090659400D0017E0C046100200201802002000804640008046C0000024C000002440D9010020D6010020CC00002073
:4006C000881300007B4B9C69DD693C617D61794B23229B5C022B04D0764B23229B5C062B4AD1744B5B89180002F0E0FE061C714BDB88180002F0DAFE031C191C301C02F049
:40070000D1FB031C181C04F063FCB860F960694B5B6A181C04F05CFC02000B003869796904F0CCF802000B003A607B60614B5B6A181C04F04DFC02000B0000205E4904F069
:40074000BDF802000B003868796803F019FA02000B000020594904F0B1F802000B00B868F96803F031FE02000B001000190002F061FA03003B625BE04E4B23229B5C042BB2
:4007800004D04C4B23229B5C082B4AD1494B5B89180002F08BFE061C464BDB88180002F085FE031C191C301C02F07CFB031C181C04F00EFCB860F9603E4B5B6A181C04F055
:4007C00007FC02000B003869796904F077F802000B003A607B60374B5B6A181C04F0F8FB02000B000020344904F068F802000B003868796803F0C4F902000B0000202F493E
:4008000004F05CF802000B00B868F96803F0DCFD02000B001000190002F00CFA03003B6206E0244B5B891A00224BDB8853433B623B6A9B001900224802F030F803009AB2C6
:40084000204B1A803B6A1AB21A4B1A801E4B1B78012B01D100F098F80F231022BA18D61800F0DAFE030033700F2310229446BC4463441B78012B04D1144B02221A7000F081
:40088000B5F9162310229446BC4463441A88F423FF339A4202D9074B00221A850C4B162210218C46BC44624412881A8001E000F0BBFA76E518020020008046400000F03F2D
:4008C000808D5B00BA01002010020020D9010020D601002080B582B000AFBB1D00221A80002001F09BFA03009AB2BB1DFF210A401A80BB1D1B88272B06D8204B1B8801332A
:400900009AB21E4B1A801EE0BB1D1B885A2B06D91B4B1B8801339AB2194B1A8013E0174B1B88002B03D1164B1B88002B0BD0134B1B88013B9AB2114B1A80114B1B88013B49
:400940009AB20F4B1A800D4B1A88A0231B019A4204D90C4B03221A7000F048F9084B1A88A0231B019A4204D9064B04221A7000F03DF9C046BD4602B080BDC0466C0100202F
:400980006E010020D901002080B500AF344B9A89344B1A80324BDA89334B1A80334B1A88334B1B88D31A9BB21AB2324B1A80314B00229B5E1A002C4B1B885A432E4B1A605E
:4009C0002E4B1A682C4B1B68D2182C4B1A60294B00229B5E9AB22A4B00215B5E9BB2D31A9BB21AB2274B1A80224B00229A5E244B1A80244B00229B5E1A001A4B1B885A43C5
:400A00001D4B1A601D4B1A681B4B1B68D2181B4B1A601A4B1A68AA231B049A4203DD174BAA2212041A60154B1B68174A934203DC124B802252031A60104B1B681B14DAB28B
:400A4000124B1A70114B1B781AB2054B5A800F4B1B78180000F074FEC046BD4680BDC0461802002004020020F8010020BC010020BA01002000020020FC010020CC0000209B
:400A80007001002002020020FFFF0F00D401002080B500AF074BA022D2021A60064B00221A80054B00229A5E044B1A80C046BD4680BDC046CC0000200002002070010020EE
:400AC00080B586B000AFB9607A600F23FB18021C1A701723FB180F22BA1812781A70BB689B78002B12D11723FB181B78002B08D1BB681B781722BA1812789A4201D0012354
:400B000000E00023DAB2BB689A702EE01723FB181B78002B18D1BB685B780F2B0DD97B681B7801225340DAB27B681A70BB680A225A70BB6800229A7017E0BB685B78013333
:400B4000DAB2BB685A7010E0BB685B78042B06D8BB680A225A70BB6800229A7005E0BB685B78013BDAB2BB685A70BB681722BA1812781A70C046BD4606B080BD80B500AFEF
:400B800001F01EF8030018000C4A0D4B1900FFF797FF0A4B1B78012B06D10A4B01221A70094B01221A7005E0064B00221A70064B02221A70C046BD4680BDC046080200207B
:400BC0007401002010020020D500002080B500AF044B00221A70044B02221A70C046BD4680BDC04610020020D500002080B500AF024B03221A70C046BD4680BDD5000020CF
:400C000090B583B000AFFB1D00221A7000F052FF031E00D0F6E0FB1D1B78FA1D591C11701A007A4B55219954794B1B78002B24D0FB1D00221A700CE0FB1D1B78FA1D127855
:400C40007449895C714AD154FB1D1A78FB1D01321A70714B1B78FA1D12789A42ECD3FB1D1A786A4B1100180000F00AFF6A4B00221A70674B00221A70C5E0FB1D1B78FA1D41
:400C8000591C11701A00654B00215B5E1B12D9B25E4B9954FB1D1B78FA1D591C11701A005E4B00215B5ED9B2584B9954FB1D1B78FA1D591C11701A00584B02215B5E1B125E
:400CC000D9B2524B9954FB1D1B78FA1D591C11701A00524B02215B5ED9B24C4B9954FB1D1B78FA1D591C11701A00484B00219954FB1D1B78FA1D591C11701900474B23226A
:400D00009A5C424B5A54FB1D1B78FA1D591C11701A00424B1B891B0A9BB2D9B23B4B9954FB1D1B78FA1D591C11701A003B4B1B89D9B2364B9954394B5B891A00374BDB88B3
:400D400053431A00364B1A60FB1D1B78FA1D591C11701A00324B1B681B0AD9B22B4B9954FB1D1B78FA1D591C11701A002C4B1B68D9B2264B9954FB1D1B78FA1D591C117076
:400D80001A00224B00219954FB1D1B78FA1D591C11701A00214B19791C4B99541F4BDC699B691800210001F045FF03009AB21D4B1A80FB1D1B78FA1D591C11701A00194BD2
:400DC0001B881B0A9BB2D9B2104B9954FB1D1B78FA1D591C11701A00124B1B88D9B20B4B9954FB1D1B78FA1D591C11701A00074BAA219954FB1D1A78044B1100180000F07D
:400E00003FFE00E0C046BD4603B090BD78010020A901002098010020A801002018020020AC010020B001002080B582B000AF00F0EBFD0300102B02D900F0F6FD49E0264B4B
:400E40001B78012B44D03EE000F0CEFD0200FB1D1A70FB1D1B78553B5A425341DAB21F4B1B78591E8B41DBB21343DBB2002B0CD01A4B1B7819001A4BFA1D12785A54174B4D
:400E80001B780133DAB2154B1A70FB1D1B78AA3B5A425341DAB2114B1B78062199429B415B42DBB21343DBB2002B0CD00B4B1B7819000B4BFA1D12785A54074B01221A7022
:400EC00000F0B2FD05E000F09FFD031EBCD100E0C046BD4602B080BDA9010020A80100209801002080B500AF184B1B8801339AB2164B1A80164B1B78002B17D0154B1B78B2
:400F0000012B05D1144B1B780133DAB2124B1A70114B1B78022B09D90E4B00221A700E4B00221A7001F012F901F024F9074B1A88FA23DB009A4202D9044B00221A80012035
:400F400000F03AFCC046BD4680BDC046D601002010020020D4000020D801002080B500AF104B00221A80104B00221A800F4B00221A800F4B0022DA8201F09EF80C4B0122E8
:400F80001A850C4B01221A700B4B00221A700B4B00221A70094B1B78180000F0D1FBC046BD4680BDBC010020BE010020C001002018020020D4000020D8010020D4010020D0
:400FC00080B500AF054BDB8A01339AB2034BDA82034B1B78C046BD4680BDC0461802002063000F40B0B586B000AF01F03BF902001623FB181A80674B1A881623FB181B887B
:40100000D31A9AB2644B1A80634B1B88180002F04DFA031C8121C905181C01F043FF031C191C5E4801F024FE031C3B61386901F0E9FD03009AB25A4B1A81594BDB8A1800A6
:4010400002F0ECF9031C5749181C01F02BFF031CFB605549386901F025FF031CBB60F968B86801F01FFF031C7B604D4BDB8A642B3CD84B4B1B79002B1CD1494B9C69DD6938
:40108000474BDB88180002F0C9F9031C191C786801F0EEFD031C181C03F09AFF02000B002000290002F040FA03000C003C4A9361D4611BE03A4B9C69DD69394BDB88180076
:4010C00002F0ACF9031C191C786801F0D1FD031C181C03F07DFF02000B002000290003F0EDFB03000C002E4A9361D4612C4B9869D96900222D4B01F07BFD031E15D0284B8D
:401100009869D9690022294B03F0D8FB03000C00234A9361D461224B20229B5E9BB201339BB21AB21E4B1A841DE01D4B9869D96900221F4B01F048FD031E14D0184B98694F
:40114000D9690022194B02F0EFF903000C00144A9361D461124B20229B5E9BB2013B9BB21AB20F4B1A840B4B1622BA1812881A80094B1B88180002F099F9021C0D4B1A60EE
:40118000074B0022DA82022001F0A4F8C046BD4606B0B0BDDA010020BC010020001BB74A180200206F12833A0000C04000807640008076C0DC010020B0B500AF134B1B8D15
:4011C000002B1FD1114B23229B5C002B12D10F4B2322022199540D4B2222012199540B4A00230B4C9361D461FFF752FC094B00221A7007E0FFF7FAFC074B01221A700120A5
:4012000000F026FFC046BD46B0BDC0461802002000804BC010020020D901002090B500AF134B01221A71124BFA2212011A82104B00225A820E4B04225A810D4B6422DA8019
:401240000B4B04221A750A4B4B225A75084A002300249361D461064B0A229A81044B0A22DA81034B01221A85C046BD4690BDC0461802002080B500AF00F024FA012000F0F9
:4012800033FB00F0BDFF01F01BFA01F009FA00F0A5FC00F059FE062000F068FE00F088FE00F082FB01F072FA104B180001F080FA01F0CEFA00F08EFA0D4B180000F09CFAC1
:4012C00000F0EAFA00F02EF90A4B180000F03CF900F08AF900F0CAFE074B180000F0D8FE00F03EFFC046BD4680BDC046C10F0000E50E0000E50F0000B911000080B500AF38
:40130000FFF764FCC046BD4680BDC04680B582B000AF786039603A687B680021180003F0DFFFC046BD4602B080BDC04680B586B000AF7860396000233B6100237B612FE09F
:401340007B699B007A68D3181B68BB600F23FB18BA681A70BB68FF229343BB6018E03B695B003A68D3181B781A00BB68D31819003B695B003A68D3185B780B703B69013353
:401380003B610F23FB181A780F23FB18013A1A700F23FB181B78002BE1D17B6901337B617B69092BCCD9C046BD4606B080BDC04680B500AF054B42221A60054B42221A6008
:4013C000012000F007F8C046BD4680BD00031A4040031A4080B584B000AF0200FB1D1A700B4B1B68FB60FB1D1B78002B05D0FB68802212061343FB6003E0FB685B005B0830
:40140000FB60034BFA681A60C046BD4604B080BD80031A4080B500AF03F036FF03001B680C2B00D1FEE7FEE780B586B000AF224B7B61224B3B61204B7B6135E03B691B68FD
:40144000FB603B695B68BB603B699B683B6000237B600CE0FB681A68BB681A60BB680433BB60FB680433FB607B6804337B607A683B689A42EED13B69DB683B6000237B60E2
:4014800008E0BB6800221A60BB680433BB607B6804337B607A683B689A42F2D13B6910333B617B69013B7B617B69002BC6D103F0F1FEFEF755FFFEE7010000003457000036
:4014C00080B582B000AF00237B600FE07B68032B04D8104B7A689200D35800E00E4B0F4A796889008B507B6801337B607B682F2BECD9FEF7EDFD0A4B00221A608023DB05E4
:401500008022D205126801210A431A60C046BD4602B080BD000000001514000000000020C000002080B500AF00F06AF8054B180000F024F8032000F02FF800F055F8C04687
:40154000BD4680BD7115000080B582B000AF786000F056F87B68180000F010F8032000F01BF800F041F8C046BD4602B080BDC04680B500AFC046BD4680BDC04680B582B0A2
:4015800000AF7860034B84217A685A50C046BD4602B080BD0000002090B585B000AF0200FB1D1A700E23FB600B23FC1801F06EF9030023700A4B0A4A12680A491140FA1DA6
:4015C0001078FA68904002000A431A600B23FB181B78180001F05EF9C046BD4605B090BD10E400E0FF3FFFFF80B500AF034B802292021A60C046BD4680BDC04600E100E02A
:4016000080B500AF034B802292021A60C046BD4680BDC04680E100E080B500AF024B1B78DBB21800BD4680BD62000F4080B500AF114B124A1A60104B0F4A126880214902B1
:401640000A431A60EF2000F04FF80B4B0A4A12681A600B4B0C221A60012000F09FF8094B1C221A60EF2000F04FF8002000F068F8C046BD4680BDC0460001054008000004B9
:40168000240105402801054090B583B000AFFC1D01F0FCF803002370094B094A126801210A431A60FB1D1B78180001F0F3F81821012000F055F8C046BD4603B090BDC04648
:4016C0000000054080B500AF064B1B78002B04D1FFF7ACFF034B01221A70FFF7D5FFC046BD4680BDE001002080B582B000AF7860044B7A681204120C1A60C046BD4602B0A8
:4017000080BDC0460801054080B582B000AF7860044B7A681204120C1A60C046BD4602B080BDC0461401054080B500AF034B1B681B041B0C1800BD4680BDC0461401054040
:4017400080B582B000AF7860044B7A681204120C1A60C046BD4602B080BDC0460C01054090B585B000AF786039600F23FC1801F08DF803002370084B79683A6891400A00AF
:401780001A600F23FB181B78180001F083F8C046BD4605B090BDC0460800054080B582B000AF7860034B7A681A60C046BD4602B080BDC0463801054080B582B000AF7860F3
:4017C000034B7A681A60C046BD4602B080BDC0463001054080B500AF00F06AF8054B180000F024F8032000F02FF800F055F8C046BD4680BD2118000080B582B000AF78603D
:4018000000F056F87B68180000F010F8032000F01BF800F041F8C046BD4602B080BDC04680B500AFC046BD4680BDC04680B582B000AF7860034B80217A685A50C046BD4688
:4018400002B080BD0000002090B585B000AF0200FB1D1A700623FB600B23FC1801F016F8030023700B4B0B4A1268C0218A431100FA1D1078FA68904002000A431A600B2385
:40188000FB181B78180001F005F8C046BD4605B090BDC04610E400E080B500AF034B802252021A60C046BD4680BDC04600E100E080B500AF034B802252021A60C046BD463D
:4018C00080BDC04680E100E080B582B000AF0200FB1D1A70034AFB1D1B781370C046BD4602B080BD71000F4080B582B000AF0200FB1D1A70034AFB1D1B781370C046BD4639
:4019000002B080BD70000F4080B584B000AF0200FB1D1A700F4B1B68DAB20F23FB1804218A431A70FB1D1B789B00DBB204221340D9B20F23FB180F22BA1812780A431A7093
:40194000044B0F22BA1812781A60C046BD4604B080BDC0460000044080B500AF044B1B68042213409B08DBB21800BD4680BDC0460400044080B500AF00F0ACF8C046BD4647
:4019800080BDC04680B500AF064B064A1268802109060A431A6000F019F800F01DF8C046BD4680BD0000064080B500AF064B1B78002B04D1FFF7DEFF034B01221A70FFF750
:4019C000E1FFC046BD4680BDE201002080B500AFC046BD4680BDC04680B500AF00F0D8F8C046BD4680BDC04680B582B000AF00237B60044B1B687B607B681800BD4602B02D
:401A000080BDC0464003064080B582B000AF054B1B680F2213407B607B681800BD4602B080BDC0460803064080B500AF074B074A1268802149020A431A60044B034A126884
:401A400003490A401A60C046BD4680BD04030640FFFFFEFF80B582B000AF7860C046064B1B680F221340082BF9D0044B7A681A60C046BD4602B080BD080206404002064005
:401A800080B584B000AF786039600023FB6009E07A68FB68D3181B781800FFF7DBFFFB680133FB60FA683B689A42F1D3C046BD4604B080BD80B582B000AF054B1B680F22E0
:401AC00013407B607B681800BD4602B080BDC0460802064080B500AF1A4B1B4A1A601B4B00221A601A4B1B4A1A601B4B1B4A1A601B4B07221A601B4B00221A601A4B01222F
:401B00001A601A4B154A1A60194B00221A60194B00221A60184B00221A60184B00221A60174B00221A60174B00221A60164B00221A60154B1B689AB2144B1A80C046BD46C5
:401B400080BDC046000006400B000002400006404800064001000A0000030640070000800403064010030640440006400002064004020640880E0640C80E0640480F064087
:401B8000080F0640C80F0640880F0640E401002080B500AF074B074A1268F0218A4390210A431A60044B054A12881A60C046BD4680BDC04610000140880F0640E401002041
:401BC00080B500AF044B1B6808221340DB08DBB21800BD4680BDC0460400044080B500AF064B1B78002B04D100F00AF8034B01221A7000F0FDF8C046BD4680BDE6010020B5
:401C000080B584B000AF03210E2000F089FC5C4B19000E2000F05EFC5A4B03221A605A4B1B68002B01DA594900E05949594B594A12680A431A60584B584A1A60584B594A6A
:401C40001A60594B00221A60584B594A1A60594B574A1A60584B00221A60584B00221A60574B01221A60574B02221A60564B1B687B607B68554A13407B607B68C022920424
:401C800013437B60504B7A681A600023FB6070E04F4BFA689200D258DC239B0113407B604C4AFB68D3181B781A007B6813437B60FB689B00484A944663447A681A60444B0C
:401CC000FA689200D358012213400AD03A4B3A4A11680120FA68904002001204120C0A431A603B4BFA689200D358022213400AD0324B324A11680120FA68904002001204D0
:401D0000120C0A431A60324BFA689200D25880239B00134003D080235B00BB6002E080235B01BB602A4BFA689200D25880235B00134005D1294BFA6852000021D15204E0A0
:401D4000264BFA6852000021D152BB68244A5343244A944663442449180000F029FE03001BB21900214BFA689200D150FB680133FB60FB68012B8BD9C046BD4604B080BDFF
:401D8000611E000020001A4080031A40E02E1010E02E001000001A4004001A4008000A8018001A400000FF0F1C001A4010001A400400040014001A4028021A4038021A40C9
:401DC00018021A40000F1A4030001A40FFFFFFDF905500009855000080001A40480200201027000072060000E40C00004C02002080B500AF084B1B68002B09DB064B064A13
:401E00001268802109060A431A600A2000F00EFCC046BD4680BDC04600001A4080B584B000AF78607B68012B02D9002000F0CCFB7B68012B09D87B689B00084A94466344F5
:401E40001B681B041B0CFB6001E00023FB60FB681BB21800BD4604B080BDC04680011A4080B582B000AF054B1B687B60034B7A681A60C046BD4602B080BDC04610021A40EA
:401E800090B583B000AFFC1D00F000FD03002370164B1B680F2293433B60154B1B78DBB21A000F2313403A6813433B600F4B3A681A60104B0F4A12681A600F4B0E4A1268DD
:401EC0000E490A401A600B4B0A4A1268E9210A431A60094B084A12681A60FB1D1B78180000F0D8FCC046BD4603B090BD00FF084060F1FF0F0800084004000840FFFFFEFF6B
:401F000090B583B000AFFC1D00F0C0FC030023700B4B0B4A1268C02189000A431A60094B084A1268802109060A431A60FB1D1B78180000F0AFFCC046BD4603B090BDC046C5
:401F4000080008400400084080B500AF064B1B68002B04D1FFF794FF034B01221A60FFF7CFFFC046BD4680BDE801002090B585B000AF78600F23FC1800F088FC0300237035
:401F80000A4B1B68FF2293431A007B681343BB60064BBA681A600F23FB181B78180000F079FCC046BD4605B090BDC0460800084080B500AF064B1B78002B04D100F00AF887
:401FC000034B01221A7000F021F8C046BD4680BDEC01002090B583B000AFFC1D00F056FC03002370074B074A12681A60064B10221A60FB1D1B78180000F04CFCC046BD46DA
:4020000003B090BD04000A40F001002090B583B000AFFC1D00F03AFC030023700A4B0A4A126880210A431A60074A074B1968074B1B680B431360FB1D1B78180000F02AFC27
:40204000C046BD4603B090BD04000A40F001002080B582B000AF7860034B7A681A60C046BD4602B080BDC0460C000A4080B500AF00F076F8054B180000F032F8032000F035
:402080003DF800F063F8C046BD4680BDD520000080B582B000AF786000F062F87B68180000F01EF8032000F029F800F04FF8C046BD4602B080BDC04680B500AF00F050F8A7
:4020C000034B180000F00CF8C046BD4680BDC0461514000080B500AFC046BD4680BDC04680B582B000AF7860034B7A681A64C046BD4602B080BDC0460000002090B585B0AD
:4021000000AF0200FB1D1A700623FB600B23FC1800F0BCFB030023700B4B0B4A1268C0218A431100FA1D1078FA68904002000A431A600B23FB181B78180000F0ABFBC04643
:40214000BD4605B090BDC04600E400E080B500AF024B01221A60C046BD4680BD00E100E080B500AF024B01221A60C046BD4680BD80E100E080B500AF024B01221A60C04692
:40218000BD4680BD80E200E080B500AF094B0A4A1A600A4B00221A60022000F08DF8084B180000F04FF8064B180000F03BF8C046BD4680BD40010540000001026401054068
:4021C000FFFF000090B583B000AFFC1D00F05EFB03002370094B094A126802210A431A60FB1D1B78180000F055FB1821022000F045F8C046BD4603B090BDC04600000540D8
:4022000080B500AF064B1B78002B04D1FFF7BCFF034B01221A70FFF7D5FFC046BD4680BDF401002080B582B000AF7860044B7A681204120C1A60C046BD4602B080BDC0463A
:402240004801054080B582B000AF7860044B7A681204120C1A60C046BD4602B080BDC0465401054080B500AF034B1B681B041B0C1800BD4680BDC0464C01054090B585B006
:4022800000AF786039600F23FC1800F0FFFA03002370084B79683A6891400A001A600F23FB181B78180000F0F5FAC046BD4605B090BDC0460800054080B582B000AF7860F3
:4022C000034B7A681A60C046BD4602B080BDC0467801054080B582B000AF7860034B7A681A60C046BD4602B080BDC0467001054090B585B000AF78600C23FC1800F0C6FA38
:40230000030023707B68022B00D8AFE07B68302B00D9ABE05C4B1B78DBB21A007B689A420AD35A4A0F23FB1812781A70584A0E23FB1812781A703FE0564B1B78DBB21A0080
:402340007B689A420AD3544A0F23FB1812781A70524A0E23FB1812781A702DE0504B1B78DBB21A007B689A420AD34E4A0F23FB1812781A704C4A0E23FB1812781A701BE07E
:402380004A4B1B78DBB21A007B689A420AD3484A0F23FB1812781A70464A0E23FB1812781A7009E0444A0F23FB1812781A70434A0E23FB1812781A707B68DA1E0B23FB180E
:4023C0003F498A5C1A700B23FB181B782F2B0DD97B682A2B0AD93B4B19221A60052000F04BFA0D23FB1819221A7007E0354B1B68DAB20D23FB183F210A401A700B23FA18EC
:402400000D23FB1812781B789A4208D22D4B7A68033A2B498A5C1A60052000F02DFA2A4B7A6826498C4662441278D2B21A60274B0F22BA1812781A60254B0E22BA181278A4
:402440001A60052000F0F2F80B23FA180D23FB1812781B789A420CD91A4B7A68033A18498A5C1A60052000F007FA02E0002000F0ABF80C23FB181B78180000F00BFAC046AA
:40248000BD4605B090BDC046C0F1FF0FC1F1FF0FC2F1FF0FC3F1FF0FC4F1FF0FC5F1FF0FC6F1FF0FC7F1FF0FC8F1FF0FC9F1FF0FCAF1FF0FCBF1FF0FCCF1FF0FCDF1FF0F44
:4024C0009C5500002CFF0B4028FF0B401CFF0B4020FF0B4080B584B000AF02003960FB1D1A7080239B05FB60FB1D1B781F2B02D9002000F069F8FB1D1B7810339B00FA6814
:40250000D3181B68BB60FB1D1B7810339B00FA68D3183A681A60BB681800BD4604B080BD90B587B000AF0200FB1D1A70BB1D0A1C1A70BB1D1B78032B02D9002000F044F8DA
:40254000FB1D1B781F2B02D9002000F03DF8FB1D1B7803221340DB0006337B611323FC1800F094F903002370FB1D1B789B08DBB29B00144A944663441B68FB6003227B699A
:402580009A401300DA43FB681340FB60BB1D1A787B699A401300FA681343FB60FB1D1B789B08DBB29B00074A94466344FA681A601323FB181B78180000F06CF9C046BD463C
:4025C00007B090BD00E400E080B582B000AF0200FB1D1A7001BEC046BD4602B080BDC04680B582B000AF786009E00D4B1B68180000F042F97B680B4A944663447B607A6831
:4026000080231B029A42F0D8074B1B687A685343180000F031F9C046BD4602B080BDC046E40000200080FFFFDC00002080B582B000AF0200BB1D1A80BB1D1B88044A12785E
:402640005343180000F018F9C046BD4602B080BDE000002090B583B000AFC72000F05CF8C72000F073F8FC1D00F010F9030023700A4A0A4B1B78DBB210210B43DBB213701F
:40268000FB1D1B78180000F005F900F06FF8012000F028F8C046BD4603B090BD93000F4080B500AF0549054B1B78DBB2802252421343DBB20B70C046BD4680BD72000F40B9
:4026C00080B500AF064B1B78002B04D1FFF7C2FF034B01221A70FFF7E3FFC046BD4680BDF501002080B582B000AF0200FB1D1A70034AFB1D1B781370C046BD4602B080BDFF
:4027000083000F4080B500AF024B1B78DBB21800BD4680BD63000F4080B582B000AF0200BB1D1A80034ABB1D1B881380C046BD4602B080BD44100F4080B500AF024B1B8818
:402740009BB21800BD4680BD84100F4080B582B000AF0200BB1D1A80034ABB1D1B881380C046BD4602B080BD04100F4080B500AF01E0FFF7E1FFFFF7C5FF03001A000823F4
:402780001340F6D1C046BD4680BDC04680B500AF00F068F8054B180000F024F8032000F02FF800F055F8C046BD4680BDD927000080B582B000AF786000F054F87B68180029
:4027C00000F010F8032000F01BF800F041F8C046BD4602B080BDC04680B500AFC046BD4680BDC04680B582B000AF7860034B7A689A64C046BD4602B080BDC046000000202A
:4028000090B585B000AF0200FB1D1A701623FB600B23FC1800F03AF8030023700A4B0A4A12680A491140FA1D1078FA68904002000A431A600B23FB181B78180000F02AF8DE
:40284000C046BD4605B090BD00E400E0FFFF3FFF80B500AF024B04221A60C046BD4680BD00E100E080B500AF024B04221A60C046BD4680BD80E100E00230800804D0C04689
:402880000138FDD1C046C046C0467047EFF3108072B6704780F310887047C046002243088B4274D303098B425FD3030A8B4244D3030B8B4228D3030C8B420DD3FF220902F4
:4028C00012BA030C8B4202D31212090265D0030B8B4219D300E0090AC30B8B4201D3CB03C01A5241830B8B4201D38B03C01A5241430B8B4201D34B03C01A5241030B8B42E4
:4029000001D30B03C01A5241C30A8B4201D3CB02C01A5241830A8B4201D38B02C01A5241430A8B4201D34B02C01A5241030A8B4201D30B02C01A5241CDD2C3098B4201D39C
:40294000CB01C01A524183098B4201D38B01C01A524143098B4201D34B01C01A524103098B4201D30B01C01A5241C3088B4201D3CB00C01A524183088B4201D38B00C01AF7
:40298000524143088B4201D34B00C01A5241411A00D20146524110467047FFE701B5002000F0F0F802BDC0460029F7D076E7704703460B437FD4002243088B4274D30309F8
:4029C0008B425FD3030A8B4244D3030B8B4228D3030C8B420DD3FF22090212BA030C8B4202D31212090265D0030B8B4219D300E0090AC30B8B4201D3CB03C01A5241830B56
:402A00008B4201D38B03C01A5241430B8B4201D34B03C01A5241030B8B4201D30B03C01A5241C30A8B4201D3CB02C01A5241830A8B4201D38B02C01A5241430A8B4201D368
:402A40004B02C01A5241030A8B4201D30B02C01A5241CDD2C3098B4201D3CB01C01A524183098B4201D38B01C01A524143098B4201D34B01C01A524103098B4201D30B01AA
:402A8000C01A5241C3088B4201D3CB00C01A524183088B4201D38B00C01A524143088B4201D34B00C01A5241411A00D201465241104670475DE0CA0F00D04942031000D3D2
:402AC0004042534000229C4603098B422DD3030A8B4212D3FC22890112BA030A8B420CD3890192118B4208D3890192118B4204D389013AD0921100E08909C3098B4201D33C
:402B0000CB01C01A524183098B4201D38B01C01A524143098B4201D34B01C01A524103098B4201D30B01C01A5241C3088B4201D3CB00C01A524183088B4201D38B00C01A35
:402B40005241D9D243088B4201D34B00C01A5241411A00D20146634652415B10104601D34042002B00D54942704763465B1000D3404201B5002000F005F802BD0029F8D08E
:402B800016E770477047C0468446101C62468C46191C634600E0C0461FB501F0ABFB002801D40021C8421FBD10B501F0FFFA4042013010BD10B501F09DFB002801DB002060
:402BC00010BD012010BDC04610B501F093FB002801DD002010BD012010BDC04610B501F025FB002801DC002010BD012010BDC04610B501F01BFB002801DA002010BD012050
:402C000010BDC0469E2110B5C905041C02F064FA002803D1201C00F0DFFB10BD9E21201CC90500F053FA00F0D7FB80231B069C466044F2E770B500220C4B04000D00FFF7A0
:402C4000D7FF002804D12000290002F08BF970BD064B00222000290001F030FE02F082F980231B069C466044F1E7C0460000E041F0B5564644465F464D46F0B444024600D1
:402C8000C70F83B08846650A360EBA463DD0FF2E22D00023EC00802599469B46ED0425437F3E43465C025800DB0F640A000E984636D0FF2830D080230021E400DB041C433E
:402CC0007F38301A0190484642460843724E800030587A4013008746002D44D108239946063B9B46DDE70122FF2000241A406402C305640AD2071C431443200003B03CBC97
:402D000090469946A246AB46F0BD002D20D104239946033B9B46C4E7002C17D1022102E0002C0AD10121321A01924A4643460A435A48920082587B409746200002F0D6F95C
:402D4000431F76309C4040420021BAE70321B8E7280002F0CBF9431F9D4000237630464299469B469DE70C239946093B9B4698E780240022E403FF20B9E70024C2468B469B
:402D80005A465346022AAED0032A7DD0012A31D1012200201A400024A9E70122101A1B2856DD1A4000200024A1E78023DB031D424BD18023DB032B435C02640A3A00FF203F
:402DC00095E76D016001854230D2019A0024013A01921B220127290064006D00002901DBA84201D82D1A3C43013A002AF3D16A1E95412C4301987F300028CEDD620704D0F7
:402E00000F222240042A00D00434220103D5244A019814408030FE2800DD64E70122A401640AC0B21A4062E72C00A9E72D1A1A220124CFE76B02BCD500248023DB031C430E
:402E40006402640A4246FF2051E71C42B3D1F4E721002022C140101A8440621E94410C43620704D00F222240042A00D00434620104D5012201201A40002438E70122A40101
:402E8000640A1A40002032E78023DB031C436402640A5246FF202AE7CC5500000C560000FFFFFFF7F0B557464E4645464300E0B446028846760A1F0EC40F002F47D0FF2FDC
:402EC00025D0002380259A469946F600ED042E437F3F434642465D02D20F5B006D0A1B0E904640D0FF2B39D080220020ED00D20415437F3BFB1842465746591C62408C4623
:402F000007430F2F5CD86F49BF00C9598F46002E45D108239A46063B9946DAE7424602282DD0032800D1C3E0012800D0A2E0002500260240D4B27602ED05760A2E43E40715
:402F4000264330001CBC90469946A246F0BD002E1AD104239A46033B9946BAE72A00511E8A41901CC6E70120002DC3D0280002F0BDF8431F76309D4043420020BAE70124FB
:402F8000FF2514400026D6E7300002F0AFF8431F9E400023763047429A46994699E70C239A46093B994694E780260024F603FF25C1E735004846B2E7350022004846AEE70A
:402FC0002904090C0800370C3604360C2C0C7943704367437443060C64183619B14203D980214902884647440004000C310409188D01681E8541890E2943350CED19AD0197
:403000000D43290104D5012369081D4063460D4319007F31002925DD680704D00F202840042800D00435280103D5274980330D401900FE29A3DC0124AD016E0A1440CDB201
:4030400079E78020C003064207D0054205D128434602760A4446FF256DE706437602760AFF2568E70124611A1B2905DD14400025002660E76346CBE72E002023CE40591A6F
:403080008D406B1E9D412E43730704D00F233340042B00D00436730104D5012401251440002648E70124B601760A1440002542E780260124F6032E437602760A1440FF255B
:4030C00039E7C0464C560000FFFFFFF7F8B54A024E0043024400240EC50F9B09360EC90F9209FF2E00D183E001204140A01BA9425CD0002800DC95E0002E1CD1002A00D080
:4031000081E05A0704D00F221A40042A00D004335A013BD50134FF2C00D191E001209B015B0AE4B205405B02E4055B0AED0723432B431800F8BDFF2CE3D08021C9040A4356
:403140001B2800DD90E016002021C640081A8240511E8A4132439B1A5A0115D59B019E09300001F0C3FF0538864084426CDC041B330020200134E340041BA640721E964148
:4031800000243343BDE70D005A07BCD1DF0801231D40FF2C33D1002F00D190E08022D20313003B435B025B0AFF24BCE700284FDD002E2ED0FF2CA4D08025ED042A431B28DA
:4031C00000DD97E016002025C640281A8240501E824132439B185A01D5D50134FF2C6DD001227B481A405B08034013430D0088E7002A00D07AE777E7031EC5D100257B0251
:403200005B0AE4B28FE701380028A4D0FF2C97D177E7002A00D174E701380028DAD0FF2CCDD16EE7002821D1601CC0B2012858DD80279E1AFF0437402FD0D61A0D008FE727
:4032400001231D4000236EE7624B241A334058E7002851D1601CC6B2012E33DDFF282DD09B185B0804004CE7012274E7002C1AD0FF2E1FD08024E404404223431B2800DD86
:4032800096E01D002024C540201A8340581E83412B43D31A34000D005EE7002E00D05FE700250024ABE7002B44D0C0430028F0D0FF2EE3D11300FF240D0022E70D00FF2474
:4032C000002330E7002C5DD1002B7DD0002A00D117E79B185A0100D456E73E4A040013400FE7002C1ED1002B2FD1002A65D013000D0006E701226DE7002C1FD1002B59D03C
:40330000C04300280BD0FF2E4FD01B285EDC1D002024C540201A8340581E83412B439B18340058E7002B1CD1002A49D013000D00FF24E6E6130034000D00E2E6FF2E34D0D6
:403340008024E40440422343DFE7002A00D1D8E68027981AFF04074000D14DE7D31A0D00CFE6FF24002A00D1CBE68020DB08C003034204D0D208024201D113000D00DB00EA
:40338000FF24BEE6002B10D0FF24002A00D1B8E68020DB08C003034203D0D208024200D11300DB000D00FF24ABE61300FF24A8E601236EE713003400A3E6002700251EE725
:4033C00080270025FF03E9E613009AE60123A6E7FFFFFF7DFFFFFFFB4302590A4300C20F1B0E00207E2B0EDD9D2B0DDC802000040143952B0BDC9620C31AD9400B00584250
:40340000002A00D118007047034BD018FBE7963B99400B00F3E7C046FFFFFF7F70B5002830D0C317C5185D40C40F280001F05EFE9E231B1A962B0DDC9622D21A95406A022B
:40344000520AD8B25202C005520AE40702432243100070BD992B19DC9922D21A9540124A2A40690704D00F210D40042D00D00432510103D50C4B1A409F231B1A9201520A6B
:40348000D8B2DFE7002400200022DBE705222E00121AB921D6402A00C91A8A40551EAA4135001543DBE7C046FFFFFFFB70B5041E28D001F01BFE9E231B1A962B0ADC962203
:4034C000D21A94406202520AD8B25202520AC005104370BD992B18DC9922D21A9440114A2240610704D00F210C40042C00D00432510103D50B4B1A409F231B1A9201520A2F
:40350000D8B2E2E700200022DFE705222500121AB921D5402200C91A8A40541EA2412C001443DCE7FFFFFFFBF8B556465F464D464446F0B40F00FD0FAA4609037C002E00F7
:403540005F00450F490A7F0D2943C5001803BC46400A570F640DDB0F3843D2009A4500D1AAE06646A61B002E00DCFFE06346002B39D10300134300D0D9E06B0709D00F2346
:403580002B40042B05D02B1DAB42AD416D4249191D000B0200D482E0CA4B01349C4200D1FEE00A005646C84BED081A405007640552020543120B640D002112030B0D1B05D1
:4035C0006405120B1A436308C04CF60714401C43640064083443280021003CBC90469946A246AB46F8BDB74B9C42C6D080231B041843382E00DDEBE01F2E00DD1EE12023E9
:403600009B1B9C4603006746BB40984613004746F3403B436746BA40571EBA4113430200F240EB1A9D42B6411D008A1A7642911B0B0231D54A02560A002E00D1B4E03000F5
:4036400001F054FD0300083B1F2B00DDB5E020222900D21AD1409E400A009D4032439C4200DDB1E01C1B631C1F2B00DDD5E0202114002800C91A8C40D8408D400443DA4014
:40368000681E854111002543002476E74146314300D134E2310045466B0700D06FE756464807ED08C9080543864B9C4235D00A036405120B640D7FE76346E31A9B46002BC5
:4036C00000DC8BE06746002F3CD07E4FBC4200D153E780273F0438435B46382B00DCF7E00243501E82410020D2B253194218AB4289411D00494289180B02CDD5714B013429
:403700009C4200D13DE101206F4A6B080A4028401843D507054351082FE72B000B4300D1CBE180231B030B431A03120B44E7013E002E6DD1AE1AB5429B41091A5B42C91A7C
:40374000350075E70700174300D116E701235B429C46E3445B46002B00D0E0E0AA18AA429B4109185B4259181500C5E7002E75D1661C7605760D012E00DCF3E0AE1AB04659
:403780004545BF410E1A7F42F61B370200D48FE0551BAA42B641411A76428E1B9A464BE756460022002507E7280001F09FFC20300300083B1F2B00DC49E72A00283882402B
:4037C00000259C4200DC4DE73F49E41A1140D4E60243501E8241D3B2002222E7002B00D0F3E0631C9C465B055B0D012B00DC9FE0344B9C4500D1C3E0AA180918AA4280411D
:4038000040424118CD075208154349086446B4E62C4B9C4200D0ECE6AFE611001F3CE1400C00202B00D17FE04021CB1A9A4015436A1E95410021254300242DE73300070021
:40384000203BDF403B00202E70D04027BE1BB0400243501E824113430022E2E6002C4FD0184CA44500D1ABE08024240476422143382E00DDDFE01F2E00DD43E12027BC1BD5
:40388000A1460C004F46BC40A0462C004746F4403C434F46BD406F1EBD41F1402C43151BAA429241411A5242891A64469A46BFE641464546314300D0BEE60026002400255C
:4038C000F2E6C046FF070000FFFF7FFFFFFF0F801F2B59DC2027FF1ABC46070063469F405B46B9461700DF40B8464F4643461F4363469A40531E9A415B463A43D840F4E638
:403900000C002C435CD0F643002E55D1551BAA42A441411A6442091B9A46644688E6964FBC4200D0D8E628E6002280E700208FE70B002B43002C00D0C2E0002B00D101E162
:403940000300134300D118E6AB18AB42B6410918764271180A0200D409E1884A1D00114064460AE6002C5BD10E002E4300D08AE00100114300D1C2E0010015009A46FCE5C2
:403980006446002100258FE620235B429C46DC4463460700DF405B46BC46202B00D1ACE040235F46DB1B98400243501E8241634613431A00002098E66F4CA44500D057E7F1
:4039C0000100150064469A46D7E5002C39D10C002C436ED0DB43002B1AD0674CA44568D0382B00DDA4E01F2B00DDAEE020240F00E41AA740B9462F00DF40B846A3464F46FB
:403A0000444627435C46A5406C1EA541D9403D43AD1895429B4109185B42591864466BE60C002C4315D1010011437BD0010015009A46514CA1E50D43691E8D410021ECB2E2
:403A40002DE74D4CA44534D0802424045B422143C6E7040014434ED0ED084C072C438025C9082D03294208D0C6082E4205D1D208410711430C009A463100620FC900E50053
:403A800011433D4C79E50600164300D175E5AE1AB0464545BF410E1A7F42F61B370200D4F4E5551BAA42B641411A7642891B9A4663E50100150064465FE5002200257BE53C
:403AC000002B3BD00300134315D0ED084B072B438025C9082D03294207D0C4082C4204D141070B002100D2081343C9005A0F1143DD00214C41E5204C3FE5002054E70026FB
:403B00000025D1E534000F00203CE7403C00202E2BD04027BE1BB1400D43691E8D4100212C43BCE6802100260903134C0025BBE50D43691E8D410021EDB269E70100150095
:403B40000D4C1AE50100150017E51C000F00203CE7403C00202B0CD04027FB1A99400D43691E8D410021254352E70021D4E71D0092E50021F3E7C046FF070000FFFF7FFF1B
:403B8000F0B556464D4644465F46F0B41D000E034C00CB0F87B0070092468146360B640D98466AD06D4B9C4235D08022430F12041343F6001E43C3009946694B00279C46B2
:403BC0000023644402932B0368001B0BED0F51469B46400D009500D178E0604B98426CD05B46DA004B0F802109040B4313439B465346D9005A4B9C46002360444246201ADF
:403C00006A40924601901F430F2F00D9B0E05548BF00C0598746374300D088E0002399460233082700260293CDE74346B34649460093029B009A9246022B00D0BFE100212E
:403C400053460122002689461A40444B002136030C0D2405360B2643434C1B0526401E437600D207760816434846310007B03CBC90469946A246AB46F0BD330003434FD087
:403C8000002E00D1BCE1300001F030FA03000B3B1C2B00DDADE11D220100D31A08393A008F408E40DA40B9461643304B00279C46002360444442029385E753465A4613430A
:403CC0002CD1002300219B46023397E70B4320D05B46002B00D19EE1584601F007FA03000B3B1C2B00DD8FE102005946083A91408B461D21CB1A5146D9400B0059460B43D8
:403D000051469B469140194B9C4660444042002374E7002300219B4601336FE703236DE70023994601330427002602934BE703230C27029347E70122D51A382D00DCB0E1D9
:403D400053461A4000210023002689467EE700238026994600223603004B77E7FF07000001FCFFFF8C560000FFFF0F80F30300005E4500D972E100D16DE1019B4D46013B47
:403D800001930023340002935B461E020B0E1E430B020393330C994633041B0C494620000093FEF77BFD009B370043430600494620009846FEF7F8FD2C0C09040C43A0452C
:403DC00009D9E419731EA74200D95CE1A04500D859E1023EE4194346E41A49462000FEF75DFD0300009A80465343494620009B46FEF7DAFD2A040904120C0A4393450DD9E2
:403E00004346D219013B974200D93AE1934500D837E102235B429C46D219E0445B46D21A4346360433439B460399180C0B0C1D00059309045B46090C0C001B041B0C4443BB
:403E4000049159436B4368431B190D0CEB189C4203D980246402A44660441C0C09041B04090C20185D18824200D2DEE000D1D7E0161A029B9C465D1BAC459B415B42F61A83
:403E8000B74200D106E149463000FEF707FD009B04004343494630009846FEF785FD2E0C09040E43B04509D9F619631EB74200D9F3E0B04500D8F0E0023CF6194346F31A3C
:403EC000494618000293FEF7E9FC009B06004343494602989846FEF767FD2D0409042D0C0D43A84509D9ED19731EAF4200D9D6E0A84500D8D3E0023EED19240421004346E8
:403F00003143049E059A3000ED1A0B040C0C1B0C58436643534354439A19030C9B189E4203D980225202944664441A0C00041B04000C14191B18A54250D34DD001231943D1
:403F4000964A019B94466344002B00DCF3E64A0709D00F220A40042A05D00A1D8A42894149428B4411005A46D20108D55A468C4B1A4093468022D2009446019B6344894A36
:403F8000934200DD5BE65A46C908500708435602514601225B058146360B5B0D0A4055E680231B031E4211D05A461A420ED15E461E433603360B2A0089467B4B46E6032B1F
:403FC00000D1E1E0012BBBD11A40BBE61E433603360B4246744B39E6002BB1D07D194A1EAF4252D91100A542A8D1039A9A42A5D1A6E703003E00283B9E400023994654E6CA
:4040000001F074F8203041E603005246283B9A400021934677E6504601F068F820305EE6029B0026AB4200D323E7039E0299B44661448846B045B6415B467642F619B218AE
:40404000013B0291974213D290424FD800D18EE0161A9B460DE7894500D28EE674084B46F60735005B081D434B46DB0702938BE69742EDD10399029CA142E5D93E1A9B463C
:40408000F7E69846CAE61E00A5E6AC423ED874D0110053E70121494252E71C000EE71E002BE71F2D3CDC20230A0058465B1B9840EA4099400243481E81415E461143EE40FF
:4040C0004B0709D00F230B40042B05D00B00191D99429B415B42F61833023CD55346012200211A40002601238946AFE502235B429C46039CE344A446029B63449846A045EC
:40410000B6417642F6190293B218B1E603988A1E41008142B6417642F619AD19039161E71F225242D31A5A46DA401300202D29D040225846551BA8400143481E8141072064
:404140000B4318400026002809D00F2200261A401900042ABBD10B0070077602360BDB0803439946012253461A4000236EE502998D42BBD89B4600267BE603989842C5D3AD
:40418000110032E70020D7E780265B4636031E433603360B009A8946034B57E5FF030000FFFFFFFEFE070000FF070000F0B55F4656464D464446F0B41F035C00DB0F9A46B2
:4041C000194B0E034D00C90F8046360B6D0D8B4691463F0B640D9D4219D0134B9C421BD00123A54206D018003CBC90469946A246AB46F0BDBE42F6D1C845F4D1D34510D095
:40420000002DF0D1304303005A1E9341EBE7310001230143E7D1E0E73A430123002AE2D1DEE70023DFE7C046FF070000F0B55F46444656464D46F0B41F033C0B2C4F0E0310
:404240004D00A3465C008446360B6D0DC90F9046640DDB0FBD422BD0254FBC422ED0002D0ED130430700814678427841002C17D15F463A4314D14B460020002B0AD006E03D
:40428000002C02D15846024301D099421AD00123484218433CBC90469946A246AB46F0BD0028F2D058425841012240421043F1E737000743D0D002204042EBE75F461743C7
:4042C000CDD0F8E7A542E2DC05DB5E45DFD808D000205E45DED248424841012340421843D8E7C445D3D80020C445F4D3D2E7C046FF070000F0B55F464D4644465646F0B435
:404300001C03240BA4462F4C0F034D005E00C90F80463F0B6D0D8B469146760DDB0FA54220D0284CA64222D0002D12D1384344424441002E20D0002C0DD05C42634101244D
:404340005B421C4320003CBC90469946A246AB46F0BD002E17D05B4519D05B465C4201231C43EFE7390002240143EBD1D9E7614602241143E6D1D7E761460A43DBD100243F
:404380000028DFD0E9E761460A43E4D1E5E7B54203DD01225C421443D4E7B542CDDB6745DBD809D000246745CCD259464C426141012449420C43C5E7C845CED80024C84594
:4043C000F3D3BFE7FF070000F0B55F4656464D464446F0B40D0399464E002B0B87B00700924680469B46760DCC0F002E69D06D4B9E4235D05B468022DD001204430F134334
:404400002B439B46C3009846674B00279C460023664401934A4615035000D20F53462D0B400D914600D176E05E4A90426CD080225B0F120413435C4AED0094461D435346E7
:404440000022DB00604449463618701C6140029017430F2F00D9AFE05448BF00C759BF465B461F4300D088E000239B469846023308270193CEE74946022A6AD0032A00D1C2
:4044800009E2012A00D0BBE111400022002300259046CCB200212D030A0D12052D0B1543434A1B0515401D436D00E4076D0825434046290007B03CBC90469946A246AB46D9
:4044C000F0BD034352D05B46002B00D18AE1584600F00CFE03000B3B1C2B00DD7BE11D22D31A3A0001005D46DA4008398D4013008F402B439B46B8462E4B00279C46002338
:4045000060444642019385E752462A432CD100250023022297E752462A4321D0002D00D154E1280000F0E2FD03000B3B1C2B00DD46E11D21CB1A51460200D9405346083AFF
:40454000954093400D431B4A944660444042002279E7012400220C40124B0025904699E70025002301226EE703226CE700239B4698460133042701934CE703230C270193C4
:4045800048E700238025984600242D03054B81E75D464346019A6FE75D4643462100019A6AE7C046FF07000001FCFFFFCC560000FFFF0F80F30300004246120C91461A0C75
:4045C0009446424617044A461B041B0C5A43604690464A4642431000039262461C003F0C7A437C4342440192220C9246019A5244904506D98246802040028046C2445046FA
:404600000390100C049048462404240C1204121905922A0C2D042D0C68432C00824648467C4350438146200C8046574357444744BA4503D9802040028046C144380C3F04D2
:40464000B84648442404240C01900498A044404404905846000C814658460404200C8246070048465F434C464343604660436446834650464443380C8446E4186444A34265
:4046800003D980235B029C46E34448463F04230C3F0C2404E419574668436F4384464D46504655434243380C814662444A445B44944503D9802040028446654403983F04D5
:4046C000834604983F0C8446E344C345804140428246100484460198674484466744A344BC46A345A4419946D44464428742BF41D4458041E144A04699459B417F42404271
:40470000C8440743120CBA18A045A4415F423B0064422343D71843467D19DB0D6D021D435B465A02059B1A43531E9A415B46DB0D1A4343465B021343EA0107D501225C0806
:4047400013402343EA07029E13436D08574AB218002A4BDD580709D00F201840042805D0181D98429B415B42ED180300E80104D54F4A15408022D200B2184E48824200DDF2
:40478000E7E60124DB08680718436D02530580462D0B5B0D0C407DE6802259461203114208D0154206D115432D0398462D0B4C46414B6FE65D4615432D032D0B3E4B69E683
:4047C00003005546283B9D400023BCE6504600F08DFC2030A8E60300283B9F400023BB46984689E600F082FC203073E60124A61A382E07DD00220C4000230025904649E672
:40480000029EA3E71F2E20DC20222C001800921BF040944093400443581E83411C43F540630709D00F232340042B05D023001C1D9C4292415242AD182B021FD5012400223C
:404840000C4001230025904624E61F202C004042821AD440202E1CD04022961BB5402B43581E83410720234318400025002809D00F2200251A401C00042AD8D123006807FC
:404880006D022D0B0124DB08034398460C40002300E60025E3E780220124120315432D0398462D0B0C40044BF4E5C046FF030000FFFFFFFEFE070000FF070000F0B55746A3
:4048C0004E464546E0B40E001100F20F9246C500420F180337037400400A4E0F7F0A3043CF4E17435A00640D520DDB0FC900B24200D1E5E001267340A61AB446534500D1B0
:40490000AFE0002E00DC0DE1002A3AD103000B4300D0E4E06B0709D00F232B40042B05D02B1DAB42AD416D427F191D003B0200D488E0BB4B01349C4200D110E13A00B94BD1
:4049400051461A4001235007ED08520264050543120B640D0B400021280012030D0D120B64052D0515436208AF4CDB072C401443640064081C4321001CBC90469946A246A1
:40498000F0BDA74B9C42C5D080231B0418436346382B00DDFDE01F2B00DD30E1624620239B1A02009A40664690460A009940F24046464B1E99413243114363460200DA405A
:4049C000691A8D429B410D00BA1A5B42D71A3B0235D57A02530A98464346002B00D1C4E0404600F083FB0300083B1F2B00DDC5E020222900D21A4746D1409F400A009D4032
:404A00003A439C4200DDC0E01C1B631C1F2B00DDE4E0202114002800C91AD8408C408D400443DA40681E854117002543002471E7424663461A4300D14CE2674645466B070D
:404A400000D069E7012351467807ED08FA080B40054373498C4238D012036405120B640D79E7002E00DC9AE0002A47D06C4A944200D14FE78022120410436246382A00DC0B
:404A800008E10143481E81410022C9B24919D219A942BF410D007F42BF183A0200D442E15F4A0134944200D14EE101205D4A69083A4028400843D507054357089A4629E767
:404AC00006000E4300D017E714E72900114300D1F9E1802109030A431203120B3BE701235B429846C4446346002B72D1691A8D429B413F1A5B42FF1A0D0068E702000A437A
:404B000000D107E7012252429046C4446246002A00D0E6E06918A942B6413F187642F7190D00BAE7002E00D080E0621C5205520D012A00DCF9E06A1A91464D45B6413A1ADF
:404B40007642921B9046120200D499E04D1BA9428941C71B49427A1A90469A463CE752460123002513400022F5E6280000F0BEFA20300300083B1F2B00DC39E72A0028383B
:404B8000824000259C4200DC3EE7264FE41A1740C0E60143481E81410022C9B210E7002E00D0F1E0621C94465205520D012A00DCA0E01B4A944500D1C5E06918A942924168
:404BC0003F185242D2194908D5070D4357086446A0E6134B9C4200D0D9E69BE611001F3CE1400C00202B00D180E04021CB1A9A4015436A1E95410027254300241FE763463A
:404C00000200203BDA406346202B71D0402366469B1B98400143481E814111430022CFE6FF070000FFFF7FFFFFFF0F80002C48D0CA4CA24200D1A2E07442A146802424048B
:404C400027434C46382C00DDDBE01F2C00DD44E14E462024A41B3E00A640A246B0464C462E00E640B4464646644626435446A5406C1EA54134002C434D46EF400D1B28E053
:404C80004A4643464D461A4300D0A5E6002300240025DEE61F2A5ADC66462022921B060096409146B04662460E00D640424616434A4691404A1E9141020060463143C24037
:404CC000E4E63C002C435AD0F443A146002C52D14D1BA9428941C71B49427F1A14009A4675E69E4A944200D0C7E613E600227FE700208FE7002C00D0C8E03B002B4300D1C6
:404D00000FE103000B4300D104E66918A9429B413F185B42DF193B0200D41AE1904B0D001F406446F6E59A4689E63A002A43002C5CD1002A75D102000A4300D1CAE00700DB
:404D40000D009A46E6E564460022002581E662460600203AD6406246B046202A00D1B7E040226646921B904001434246481E8141114300228AE6794CA24200D061E7070088
:404D80000D0014009A46C5E5002C41D13C002C4378D0F443A146002C20D0704CA24271D04C46382C00DDB2E01F2C00DDBCE02026341BA2463C005646B4404E46A0462C00E4
:404DC000F440A446444666463443A4465446A54064466E1EB54125434C46E7406D188D4289413F184942CF19140056E6002A2FD102000A4300D184E007000D009A46574CB5
:404E000088E53D436F1EBD41ECB200270D1B60E7524CA24236D0744280263604A1463743BEE702000A4300D174E56A1A90464545B6413A1A7642921B9446120200D4F7E5F7
:404E40004D1BA9428941C71B49427F1A9A4661E502000A433AD0ED087C072C438025FA082D032A4208D0C7082F4205D145072C003A009A46C9080C43670FD200E50017433F
:404E8000364C47E507000D00140043E53A002A4343D002000A4319D0ED087C072C438025FA082D032A4207D0C6082E4204D147073C003200C9080C43D700620FE50017438B
:404EC0009A46264C26E50022002544E5234C21E5002049E700230025BBE54C463E00203CE6404C46B446202C31D040244E46A61BB7403D436C1EA54164462C4300270D1B05
:404F0000E7E6802200231203144C0025A1E53D436F1EBD410027EDB260E707000D000F4CF8E407000D00F5E44E463C00203EF440A0464C46202C0ED040244E46A41BA740CD
:404F40003D436F1EBD4144460027254346E70027CFE70D0073E50027F2E7C046FF070000FFFF7FFF0B0330B5134D1A0B4B005B0DC90F0024AB4211DD104CA34210DC802443
:404F8000640322430E4CE41A1F2C0CDD0D48C31ADA4013005C42002900D11C00200030BD094BCC18FAE7E040084CA44663449A4013000343EEE7C046FE0300001D0400002B
:404FC0003304000013040000FFFFFF7FEDFBFFFF4200120E511C4302C9B270B55D0AC40F012915DDE02189008C466D071B0B6244002128000D0D2D052B431C4D52052B402D
:40500000520813435B00E4075B082343190070BD002A15D1002D1FD0280000F067F80A281DDC0B232A001B1ADA4013000200153295400F4A1B03121A52051B0B520DD7E788
:40504000002D06D080221B0B120313436D07094ACEE7084A0023CBE700220023C8E703000B3B9D402B000025E3E7C046FFFF0F8089030000FF0700008446081C6146FFE783
:405080001FB500F0BDF8002801D40021C8421FBD10B500F049F84042013010BD10B500F0AFF8002801DB002010BD012010BDC04610B500F0A5F8002801DD002010BD012056
:4050C00010BDC04610B500F057F8002801DC002010BD012010BDC04610B500F04DF8002801DA002010BD012010BDC0461C2101231B04984201D3000C10391B0A984201D3BF
:40510000000A08391B09984201D30009043902A2105C40187047C04604030202010101010000000000000000430270B542004C005D0AC30F4802120E460A240EC90FFF2ABA
:405140000FD0FF2C11D00120A24200D070BDB542FCD18B420DD0002AF8D12800431E9841F4E70120002DF1D1EBE70120002EEDD1E9E70020EAE7C0464302F0B542005D0A5B
:40518000C30F4802440A4800120E000EC90FFF2A1FD0FF2822D0002A09D16E426E4100280FD1002C0DD10020002D09D005E0002801D1002C01D08B4213D0584201231843C6
:4051C000F0BD002EF7D048424141012049420843F6E7002DDDD002204042F1E7002CDAD0F9E78242E9DC04DBA542E6D80020A542E6D25842434101205B421843E0E7C04651
:405200004302F0B542004C005E0AC30F4802120E450A240EC90FFF2A17D0FF2C19D0002A0BD170427041002C17D0002807D048424141012049420843F0BD002C13D08B42CE
:4052400014D0584201231843F6E70220002EF3D1E3E70220002DEFD1E1E7002DE5D10020002EE9D0EDE7002DE9D1EAE7A242E8DC04DBAE42E5D80020AE42DDD25842434118
:4052800001205B421843D7E7014B18687047C0464C0100200E4B70B500251E000D4CE41AA410A54204D0AB00F35898470135F8E700F02EFA084B00251E00084CE41AA410FC
:4052C000A54204D0AB00F35898470135F8E770BD1C5700001C5700001C5700002457000003008218934202D019700133FAE770470000000000300F40000400400F40000459
:4053000001000F402B300F402A310F4055320F403F330F400E400F400B410F4014420F401A430F4002600F40830D08020A010C010D020E020F0112031502160317011801A1
:405340001A021B031F0325012702340335033B0C3E103F10580459045B045F018B018C028E01940196029701A402A601A901B003B701B820BE11BF40D804D904DB04DF01C9
:4053800002080301070108100AA00F2014101A081D011F202010230426802B102F083258360839403F2068046A806B046D406F0180108101830484108608870888048E10DE
:4053C0008F10C083C22EC420CA22CC4ECE28E208E405E602080209010A010B0214011501160217022001220229012B02310336033E403F01404549FF4AFF4BFF4F015018D9
:405400005280580459045A045B045F016040624064406540668068806A806C806E80820188048A028E01910292069301950296069701A002A204A802A901AA04AB02B0014B
:40544000B103B406BE11BF01C014C5ECC720C823C9FFCAFFCBFFCD83CE03CF01D018D401D604D804D904DA04DB04DF01E040E240E440E540E680E880EA80EC80EE800202FE
:40548000034807080AA00F2011101302170318081A401F40208027802B082F0832083301360837083D103F2041014340468049054E025101520259055A405F806102768049
:4054C00077408004844087408A808B0492A093049B01A288A318A502AD02B204B720C04BC22CC41ACA24CC43CE20D089D210D61BD801E00AE280E401E640EA4037205780AA
:4055000066016C02730482018324CC20D440D880DA80DC20E2A0E4201B04480188018C02A402A704AF04B780C610D210EA40001007080B203402660269406F808140831051
:40554000871888028C50C003C208CC01D801DA02DC02E004E20A18402B4034025B015F04601067107B10801087148B018F4094409802A310B202B780C608CA02CC01D6036D
:40558000D803DE02E404E602E803100111010000000200000000000006010000030405060708090A0B0C0E0F101112131415161718191B1C1D1E1F2021222325262728293A
:4055C0002A2B2E2F3031323334350000C22D0000E62C0000A42D00007C2D0000A42D0000702D0000A42D00007C2D0000E62C0000E62C0000702D00007C2D0000282E0000A7
:40560000282E0000282E0000AA2D0000E62C0000E62C0000902D00007A2D0000902D0000702D0000902D00007A2D0000E62C0000E62C0000702D00007A2D0000282E0000E3
:40564000282E0000282E0000342E0000C02F00001E2F00001E2F00001C2F0000B22F0000B22F0000A82F00001C2F0000B22F0000A82F0000B22F00001C2F0000B82F000099
:40568000B82F0000B82F000042300000703D00003E3C0000443D0000343C0000443D00004E3D0000443D0000343C00003E3C00003E3C00004E3D0000343C00002A3C000040
:4056C0002A3C00002A3C0000A03F0000B84500007844000078440000764400009045000090450000824500007644000090450000824500009045000076440000984500009D
:4057000098450000984500009847000043000000F8B5C046F8BC08BC9E46704729030000C1140000F8B5C046F8BC08BC9E4670470103000048570000C800002088000000ED
:40574000080100000000000000000000000005000000204101020000006CDC0280BB0000300000000000C05D010000000000000000000000000000000000000000000000E4
:405780000000000000000000000000000C57000000000000000000000000000000000000000000000000000000000000000000000000000000000000000000000000000086
:4057C000000000000000000000000000EC0000200000000000000000000000000000000000000000000000000000000000000000000000000000000000000000000000009D
:405800000000000000000000000000000000000000000000000000000000000000000000000000000000000000000000000000000000000000000000000000000000000068
:405840000000000000000000000000000000000000000000000000000000000000000000000000000000000000000000000000000000000000000000000000000000000028
:4058800000000000000000000000000000000000000000000000000000000000000000000000000000000000000000000000000000000000000000000000000000000000E8
:4058C00000000000000000000000000000000000000000000000000000000000000000000000000000000000000000000000000000000000000000000000000000000000A8
:0200000490303A
:02000000507539
:0200000490402A
:200000000000000000000000000000000000000000000000000000000000000000000000E0
:0200000490501A
:0C000000000204C81193110104E562081D
:0200000490600A
:0100000001FE
:00000001FF